{
  "address": "0xD2De7d805c4407Fb619b22f8e2747b058b3D1588",
  "abi": [
    {
      "inputs": [],
      "stateMutability": "nonpayable",
      "type": "constructor"
    },
    {
      "anonymous": false,
      "inputs": [
        {
          "indexed": true,
          "internalType": "address",
          "name": "owner",
          "type": "address"
        },
        {
          "indexed": true,
          "internalType": "address",
          "name": "spender",
          "type": "address"
        },
        {
          "indexed": false,
          "internalType": "uint256",
          "name": "value",
          "type": "uint256"
        }
      ],
      "name": "Approval",
      "type": "event"
    },
    {
      "anonymous": false,
      "inputs": [
        {
          "indexed": true,
          "internalType": "address",
          "name": "from",
          "type": "address"
        },
        {
          "indexed": true,
          "internalType": "address",
          "name": "to",
          "type": "address"
        },
        {
          "indexed": false,
          "internalType": "uint256",
          "name": "value",
          "type": "uint256"
        }
      ],
      "name": "Transfer",
      "type": "event"
    },
    {
      "inputs": [
        {
          "internalType": "address",
          "name": "owner",
          "type": "address"
        },
        {
          "internalType": "address",
          "name": "spender",
          "type": "address"
        }
      ],
      "name": "allowance",
      "outputs": [
        {
          "internalType": "uint256",
          "name": "",
          "type": "uint256"
        }
      ],
      "stateMutability": "view",
      "type": "function"
    },
    {
      "inputs": [
        {
          "internalType": "address",
          "name": "spender",
          "type": "address"
        },
        {
          "internalType": "uint256",
          "name": "amount",
          "type": "uint256"
        }
      ],
      "name": "approve",
      "outputs": [
        {
          "internalType": "bool",
          "name": "",
          "type": "bool"
        }
      ],
      "stateMutability": "nonpayable",
      "type": "function"
    },
    {
      "inputs": [
        {
          "internalType": "address",
          "name": "account",
          "type": "address"
        }
      ],
      "name": "balanceOf",
      "outputs": [
        {
          "internalType": "uint256",
          "name": "",
          "type": "uint256"
        }
      ],
      "stateMutability": "view",
      "type": "function"
    },
    {
      "inputs": [
        {
          "internalType": "uint256[2]",
          "name": "a",
          "type": "uint256[2]"
        },
        {
          "internalType": "uint256[2][2]",
          "name": "b",
          "type": "uint256[2][2]"
        },
        {
          "internalType": "uint256[2]",
          "name": "c",
          "type": "uint256[2]"
        },
        {
          "internalType": "uint256[15]",
          "name": "input",
          "type": "uint256[15]"
        }
      ],
      "name": "check",
      "outputs": [],
      "stateMutability": "nonpayable",
      "type": "function"
    },
    {
      "inputs": [],
      "name": "decimals",
      "outputs": [
        {
          "internalType": "uint8",
          "name": "",
          "type": "uint8"
        }
      ],
      "stateMutability": "view",
      "type": "function"
    },
    {
      "inputs": [
        {
          "internalType": "address",
          "name": "spender",
          "type": "address"
        },
        {
          "internalType": "uint256",
          "name": "subtractedValue",
          "type": "uint256"
        }
      ],
      "name": "decreaseAllowance",
      "outputs": [
        {
          "internalType": "bool",
          "name": "",
          "type": "bool"
        }
      ],
      "stateMutability": "nonpayable",
      "type": "function"
    },
    {
      "inputs": [
        {
          "internalType": "address",
          "name": "spender",
          "type": "address"
        },
        {
          "internalType": "uint256",
          "name": "addedValue",
          "type": "uint256"
        }
      ],
      "name": "increaseAllowance",
      "outputs": [
        {
          "internalType": "bool",
          "name": "",
          "type": "bool"
        }
      ],
      "stateMutability": "nonpayable",
      "type": "function"
    },
    {
      "inputs": [],
      "name": "name",
      "outputs": [
        {
          "internalType": "string",
          "name": "",
          "type": "string"
        }
      ],
      "stateMutability": "view",
      "type": "function"
    },
    {
      "inputs": [],
      "name": "symbol",
      "outputs": [
        {
          "internalType": "string",
          "name": "",
          "type": "string"
        }
      ],
      "stateMutability": "view",
      "type": "function"
    },
    {
      "inputs": [],
      "name": "totalSupply",
      "outputs": [
        {
          "internalType": "uint256",
          "name": "",
          "type": "uint256"
        }
      ],
      "stateMutability": "view",
      "type": "function"
    },
    {
      "inputs": [
        {
          "internalType": "address",
          "name": "recipient",
          "type": "address"
        },
        {
          "internalType": "uint256",
          "name": "amount",
          "type": "uint256"
        }
      ],
      "name": "transfer",
      "outputs": [
        {
          "internalType": "bool",
          "name": "",
          "type": "bool"
        }
      ],
      "stateMutability": "nonpayable",
      "type": "function"
    },
    {
      "inputs": [
        {
          "internalType": "address",
          "name": "sender",
          "type": "address"
        },
        {
          "internalType": "address",
          "name": "recipient",
          "type": "address"
        },
        {
          "internalType": "uint256",
          "name": "amount",
          "type": "uint256"
        }
      ],
      "name": "transferFrom",
      "outputs": [
        {
          "internalType": "bool",
          "name": "",
          "type": "bool"
        }
      ],
      "stateMutability": "nonpayable",
      "type": "function"
    },
    {
      "inputs": [
        {
          "internalType": "uint256[2]",
          "name": "a",
          "type": "uint256[2]"
        },
        {
          "internalType": "uint256[2][2]",
          "name": "b",
          "type": "uint256[2][2]"
        },
        {
          "internalType": "uint256[2]",
          "name": "c",
          "type": "uint256[2]"
        },
        {
          "internalType": "uint256[15]",
          "name": "input",
          "type": "uint256[15]"
        }
      ],
      "name": "verifyProof",
      "outputs": [
        {
          "internalType": "bool",
          "name": "r",
          "type": "bool"
        }
      ],
      "stateMutability": "view",
      "type": "function"
    }
  ],
  "transactionHash": "0x109e20e89e31a913f4557f8084e3980f1084d5e5116a64cefe37c9631b232a64",
  "args": [],
  "numDeployments": 1,
  "solcInputHash": "0a0dbe79aec692601b3a1744a77787a8",
  "bytecode": "0x60806040523480156200001157600080fd5b506040518060400160405280600881526020017f53756d706c6574650000000000000000000000000000000000000000000000008152506040518060400160405280600881526020017f53554d504c455445000000000000000000000000000000000000000000000000815250816003908051906020019062000096929190620000d4565b508060049080519060200190620000af929190620000d4565b506012600560006101000a81548160ff021916908360ff160217905550505062000183565b828054600181600116156101000203166002900490600052602060002090601f016020900481019282601f106200011757805160ff191683800117855562000148565b8280016001018555821562000148579182015b82811115620001475782518255916020019190600101906200012a565b5b5090506200015791906200015b565b5090565b6200018091905b808211156200017c57600081600090555060010162000162565b5090565b90565b612d1380620001936000396000f3fe608060405234801561001057600080fd5b50600436106100cf5760003560e01c806370a082311161008c578063a9059cbb11610066578063a9059cbb1461042c578063dd62ed3e14610492578063f054a9a31461050a578063ff48956114610684576100cf565b806370a08231146102eb57806395d89b4114610343578063a457c2d7146103c6576100cf565b806306fdde03146100d4578063095ea7b31461015757806318160ddd146101bd57806323b872dd146101db578063313ce567146102615780633950935114610285575b600080fd5b6100dc6107e6565b6040518080602001828103825283818151815260200191508051906020019080838360005b8381101561011c578082015181840152602081019050610101565b50505050905090810190601f1680156101495780820380516001836020036101000a031916815260200191505b509250505060405180910390f35b6101a36004803603604081101561016d57600080fd5b81019080803573ffffffffffffffffffffffffffffffffffffffff16906020019092919080359060200190929190505050610888565b604051808215151515815260200191505060405180910390f35b6101c56108a6565b6040518082815260200191505060405180910390f35b610247600480360360608110156101f157600080fd5b81019080803573ffffffffffffffffffffffffffffffffffffffff169060200190929190803573ffffffffffffffffffffffffffffffffffffffff169060200190929190803590602001909291905050506108b0565b604051808215151515815260200191505060405180910390f35b610269610989565b604051808260ff1660ff16815260200191505060405180910390f35b6102d16004803603604081101561029b57600080fd5b81019080803573ffffffffffffffffffffffffffffffffffffffff169060200190929190803590602001909291905050506109a0565b604051808215151515815260200191505060405180910390f35b61032d6004803603602081101561030157600080fd5b81019080803573ffffffffffffffffffffffffffffffffffffffff169060200190929190505050610a53565b6040518082815260200191505060405180910390f35b61034b610a9b565b6040518080602001828103825283818151815260200191508051906020019080838360005b8381101561038b578082015181840152602081019050610370565b50505050905090810190601f1680156103b85780820380516001836020036101000a031916815260200191505b509250505060405180910390f35b610412600480360360408110156103dc57600080fd5b81019080803573ffffffffffffffffffffffffffffffffffffffff16906020019092919080359060200190929190505050610b3d565b604051808215151515815260200191505060405180910390f35b6104786004803603604081101561044257600080fd5b81019080803573ffffffffffffffffffffffffffffffffffffffff16906020019092919080359060200190929190505050610c0a565b604051808215151515815260200191505060405180910390f35b6104f4600480360360408110156104a857600080fd5b81019080803573ffffffffffffffffffffffffffffffffffffffff169060200190929190803573ffffffffffffffffffffffffffffffffffffffff169060200190929190505050610c28565b6040518082815260200191505060405180910390f35b61066a60048036036102e081101561052157600080fd5b8101908080604001906002806020026040519081016040528092919082600260200280828437600081840152601f19601f82011690508083019250505050505091929192908060800190600280602002604051908101604052809291906000905b828210156105d6578382604002016002806020026040519081016040528092919082600260200280828437600081840152601f19601f82011690508083019250505050505081526020019060010190610582565b50505050919291929080604001906002806020026040519081016040528092919082600260200280828437600081840152601f19601f8201169050808301925050505050509192919290806101e00190600f806020026040519081016040528092919082600f60200280828437600081840152601f19601f8201169050808301925050505050509192919290505050610caf565b604051808215151515815260200191505060405180910390f35b6107e460048036036102e081101561069b57600080fd5b8101908080604001906002806020026040519081016040528092919082600260200280828437600081840152601f19601f82011690508083019250505050505091929192908060800190600280602002604051908101604052809291906000905b82821015610750578382604002016002806020026040519081016040528092919082600260200280828437600081840152601f19601f820116905080830192505050505050815260200190600101906106fc565b50505050919291929080604001906002806020026040519081016040528092919082600260200280828437600081840152601f19601f8201169050808301925050505050509192919290806101e00190600f806020026040519081016040528092919082600f60200280828437600081840152601f19601f8201169050808301925050505050509192919290505050610ec2565b005b606060038054600181600116156101000203166002900480601f01602080910402602001604051908101604052809291908181526020018280546001816001161561010002031660029004801561087e5780601f106108535761010080835404028352916020019161087e565b820191906000526020600020905b81548152906001019060200180831161086157829003601f168201915b5050505050905090565b600061089c610895610ef9565b8484610f01565b6001905092915050565b6000600254905090565b60006108bd8484846110f8565b61097e846108c9610ef9565b61097985604051806060016040528060288152602001612c4860289139600160008b73ffffffffffffffffffffffffffffffffffffffff1673ffffffffffffffffffffffffffffffffffffffff168152602001908152602001600020600061092f610ef9565b73ffffffffffffffffffffffffffffffffffffffff1673ffffffffffffffffffffffffffffffffffffffff168152602001908152602001600020546113b99092919063ffffffff16565b610f01565b600190509392505050565b6000600560009054906101000a900460ff16905090565b6000610a496109ad610ef9565b84610a4485600160006109be610ef9565b73ffffffffffffffffffffffffffffffffffffffff1673ffffffffffffffffffffffffffffffffffffffff16815260200190815260200160002060008973ffffffffffffffffffffffffffffffffffffffff1673ffffffffffffffffffffffffffffffffffffffff1681526020019081526020016000205461147390919063ffffffff16565b610f01565b6001905092915050565b60008060008373ffffffffffffffffffffffffffffffffffffffff1673ffffffffffffffffffffffffffffffffffffffff168152602001908152602001600020549050919050565b606060048054600181600116156101000203166002900480601f016020809104026020016040519081016040528092919081815260200182805460018160011615610100020316600290048015610b335780601f10610b0857610100808354040283529160200191610b33565b820191906000526020600020905b815481529060010190602001808311610b1657829003601f168201915b5050505050905090565b6000610c00610b4a610ef9565b84610bfb85604051806060016040528060258152602001612cb96025913960016000610b74610ef9565b73ffffffffffffffffffffffffffffffffffffffff1673ffffffffffffffffffffffffffffffffffffffff16815260200190815260200160002060008a73ffffffffffffffffffffffffffffffffffffffff1673ffffffffffffffffffffffffffffffffffffffff168152602001908152602001600020546113b99092919063ffffffff16565b610f01565b6001905092915050565b6000610c1e610c17610ef9565b84846110f8565b6001905092915050565b6000600160008473ffffffffffffffffffffffffffffffffffffffff1673ffffffffffffffffffffffffffffffffffffffff16815260200190815260200160002060008373ffffffffffffffffffffffffffffffffffffffff1673ffffffffffffffffffffffffffffffffffffffff16815260200190815260200160002054905092915050565b6000610cb9612a9a565b604051806040016040528087600060028110610cd157fe5b6020020151815260200187600160028110610ce857fe5b602002015181525081600001819052506040518060400160405280604051806040016040528088600060028110610d1b57fe5b6020020151600060028110610d2c57fe5b6020020151815260200188600060028110610d4357fe5b6020020151600160028110610d5457fe5b60200201518152508152602001604051806040016040528088600160028110610d7957fe5b6020020151600060028110610d8a57fe5b6020020151815260200188600160028110610da157fe5b6020020151600160028110610db257fe5b60200201518152508152508160200181905250604051806040016040528085600060028110610ddd57fe5b6020020151815260200185600160028110610df457fe5b602002015181525081604001819052506060600f67ffffffffffffffff81118015610e1e57600080fd5b50604051908082528060200260200182016040528015610e4d5781602001602082028036833780820191505090505b50905060008090505b600f811015610e95578481600f8110610e6b57fe5b6020020151828281518110610e7c57fe5b6020026020010181815250508080600101915050610e56565b506000610ea282846114fb565b1415610eb357600192505050610eba565b6000925050505b949350505050565b6000610ed085858585610caf565b9050600115158115151415610ef257610ef133670de0b6b3a764000061172f565b5b5050505050565b600033905090565b600073ffffffffffffffffffffffffffffffffffffffff168373ffffffffffffffffffffffffffffffffffffffff161415610f87576040517f08c379a0000000000000000000000000000000000000000000000000000000008152600401808060200182810382526024815260200180612c956024913960400191505060405180910390fd5b600073ffffffffffffffffffffffffffffffffffffffff168273ffffffffffffffffffffffffffffffffffffffff16141561100d576040517f08c379a0000000000000000000000000000000000000000000000000000000008152600401808060200182810382526022815260200180612c006022913960400191505060405180910390fd5b80600160008573ffffffffffffffffffffffffffffffffffffffff1673ffffffffffffffffffffffffffffffffffffffff16815260200190815260200160002060008473ffffffffffffffffffffffffffffffffffffffff1673ffffffffffffffffffffffffffffffffffffffff168152602001908152602001600020819055508173ffffffffffffffffffffffffffffffffffffffff168373ffffffffffffffffffffffffffffffffffffffff167f8c5be1e5ebec7d5bd14f71427d1e84f3dd0314c0f7b2291e5b200ac8c7c3b925836040518082815260200191505060405180910390a3505050565b600073ffffffffffffffffffffffffffffffffffffffff168373ffffffffffffffffffffffffffffffffffffffff16141561117e576040517f08c379a0000000000000000000000000000000000000000000000000000000008152600401808060200182810382526025815260200180612c706025913960400191505060405180910390fd5b600073ffffffffffffffffffffffffffffffffffffffff168273ffffffffffffffffffffffffffffffffffffffff161415611204576040517f08c379a0000000000000000000000000000000000000000000000000000000008152600401808060200182810382526023815260200180612bdd6023913960400191505060405180910390fd5b61120f8383836118f6565b61127a81604051806060016040528060268152602001612c22602691396000808773ffffffffffffffffffffffffffffffffffffffff1673ffffffffffffffffffffffffffffffffffffffff168152602001908152602001600020546113b99092919063ffffffff16565b6000808573ffffffffffffffffffffffffffffffffffffffff1673ffffffffffffffffffffffffffffffffffffffff1681526020019081526020016000208190555061130d816000808573ffffffffffffffffffffffffffffffffffffffff1673ffffffffffffffffffffffffffffffffffffffff1681526020019081526020016000205461147390919063ffffffff16565b6000808473ffffffffffffffffffffffffffffffffffffffff1673ffffffffffffffffffffffffffffffffffffffff168152602001908152602001600020819055508173ffffffffffffffffffffffffffffffffffffffff168373ffffffffffffffffffffffffffffffffffffffff167fddf252ad1be2c89b69c2b068fc378daa952ba7f163c4a11628f55a4df523b3ef836040518082815260200191505060405180910390a3505050565b6000838311158290611466576040517f08c379a00000000000000000000000000000000000000000000000000000000081526004018080602001828103825283818151815260200191508051906020019080838360005b8381101561142b578082015181840152602081019050611410565b50505050905090810190601f1680156114585780820380516001836020036101000a031916815260200191505b509250505060405180910390fd5b5082840390509392505050565b6000808284019050838110156114f1576040517f08c379a000000000000000000000000000000000000000000000000000000000815260040180806020018281038252601b8152602001807f536166654d6174683a206164646974696f6e206f766572666c6f77000000000081525060200191505060405180910390fd5b8091505092915050565b6000807f30644e72e131a029b85045b68181585d2833e84879b9709143e1f593f00000019050611529612acd565b6115316118fb565b90508060800151516001865101146115b1576040517f08c379a00000000000000000000000000000000000000000000000000000000081526004018080602001828103825260128152602001807f76657269666965722d6261642d696e707574000000000000000000000000000081525060200191505060405180910390fd5b6115b9612b14565b6040518060400160405280600081526020016000815250905060008090505b86518110156116b857838782815181106115ee57fe5b602002602001015110611669576040517f08c379a000000000000000000000000000000000000000000000000000000000815260040180806020018281038252601f8152602001807f76657269666965722d6774652d736e61726b2d7363616c61722d6669656c640081525060200191505060405180910390fd5b6116a9826116a48560800151600185018151811061168357fe5b60200260200101518a858151811061169757fe5b602002602001015161231d565b612418565b915080806001019150506115d8565b506116db8183608001516000815181106116ce57fe5b6020026020010151612418565b90506117116116ed8660000151612532565b8660200151846000015185602001518587604001518b6040015189606001516125cc565b6117215760019350505050611729565b600093505050505b92915050565b600073ffffffffffffffffffffffffffffffffffffffff168273ffffffffffffffffffffffffffffffffffffffff1614156117d2576040517f08c379a000000000000000000000000000000000000000000000000000000000815260040180806020018281038252601f8152602001807f45524332303a206d696e7420746f20746865207a65726f20616464726573730081525060200191505060405180910390fd5b6117de600083836118f6565b6117f38160025461147390919063ffffffff16565b60028190555061184a816000808573ffffffffffffffffffffffffffffffffffffffff1673ffffffffffffffffffffffffffffffffffffffff1681526020019081526020016000205461147390919063ffffffff16565b6000808473ffffffffffffffffffffffffffffffffffffffff1673ffffffffffffffffffffffffffffffffffffffff168152602001908152602001600020819055508173ffffffffffffffffffffffffffffffffffffffff16600073ffffffffffffffffffffffffffffffffffffffff167fddf252ad1be2c89b69c2b068fc378daa952ba7f163c4a11628f55a4df523b3ef836040518082815260200191505060405180910390a35050565b505050565b611903612acd565b60405180604001604052807f2d4d9aa7e302d9df41749d5507949d05dbea33fbb16c643b22f599a2be6df2e281526020017f14bedd503c37ceb061d8ec60209fe345ce89830a19230301f076caff004d19268152508160000181905250604051806040016040528060405180604001604052807f0967032fcbf776d1afc985f88877f182d38480a653f2decaa9794cbc3bf3060c81526020017f0e187847ad4c798374d0d6732bf501847dd68bc0e071241e0213bc7fc13db7ab815250815260200160405180604001604052807f304cfbd1e08a704a99f5e847d93f8c3caafddec46b7a0d379da69a4d112346a781526020017f1739c1b1a457a8c7313123d24d2f9192f896b7c63eea05a9d57f06547ad0cec88152508152508160200181905250604051806040016040528060405180604001604052807f198e9393920d483a7260bfb731fb5d25f1aa493335a9e71297e485b7aef312c281526020017f1800deef121f1e76426a00665e5c4479674322d4f75edadd46debd5cd992f6ed815250815260200160405180604001604052807f090689d0585ff075ec9e99ad690c3395bc4b313370b38ef355acdadcd122975b81526020017f12c85ea5db8c6deb4aab71808dcb408fe3d1e7690c43d37b4ce6cc0166fa7daa8152508152508160400181905250604051806040016040528060405180604001604052807f2ecfc70875cc3e16e661354a0c7b8d2016d1f4093cb6b30ef164c5d10f91ebfd81526020017f052757557db49bfeda9f535bc3ef8e5a51fd2fbcb97bef2fd74abcd4d3f94dcd815250815260200160405180604001604052807f043f4bb541e209469fdd87ced06abb9a842aabeb5162cdb47368d5e188afe82c81526020017f02206ab59a572fd82aa7c2ce27818d40c1bf15e65907386f6946934487eaf0e68152508152508160600181905250601067ffffffffffffffff81118015611bc757600080fd5b50604051908082528060200260200182016040528015611c0157816020015b611bee612b14565b815260200190600190039081611be65790505b50816080018190525060405180604001604052807f2e579dc06b16d3d89766dea8a027508b02c55dae32384fd95644db3720acc73981526020017f13f151a6b77b8e2d5cabf996e71f361b5ad681dcd9b6d383f96b956ecd4793d18152508160800151600081518110611c7057fe5b602002602001018190525060405180604001604052807f0bea4f922dc46d38e14d484c5f0eb7a1fd6138e7608258b41110c0a32fb0d21e81526020017f267072dda370ec53b784c0d790ae98d916bb66bf8a15771681310699199b1e728152508160800151600181518110611ce157fe5b602002602001018190525060405180604001604052807f0a836f9b09631ca4075afd7619d83f621653942daf0889620fcc8a3221219ac881526020017f20fd9e02d22ea3436e4eb7f5ce45346dabff87ec7e278595af1ee88dab15b8c28152508160800151600281518110611d5257fe5b602002602001018190525060405180604001604052807f234f515c6839794da5fb79d42b0d04395af65c854caa719c836a18090539bd6981526020017f217479cf51247df20f613943af386deaae1302819fd65540c92805ae30ff1d7c8152508160800151600381518110611dc357fe5b602002602001018190525060405180604001604052807f272e305463b46d84fdfa812c5b9ba8434581d9a8b9957c9ae527ec8a15df970681526020017f0640623fcb0982cba43c23f929faf115374637e1c4e183ef0956a589683ad3378152508160800151600481518110611e3457fe5b602002602001018190525060405180604001604052807f0250ada8c6019c1220392e84b677681965e3b925bfcdd1cf0b51c75d97e2ba2381526020017f0aa18b1248e95ec4e2beaf474500172f71b3bfd3c29aeee681451b801aa211968152508160800151600581518110611ea557fe5b602002602001018190525060405180604001604052807f17a133da6bf959b8a549a8399b744178e24e489b6bb83b3fb7357428a0e785bf81526020017f1c347121e5b1fc2eaf8e265658c3cd24a9a9dd1dab064c48d750a70c68bc971b8152508160800151600681518110611f1657fe5b602002602001018190525060405180604001604052807f1fbdf1e0aeeeb468c4a2ea609e8f360d4f0b771048915e614b5ca91dd149410881526020017f237c79e46be0e0c292c63f9eaafbb9b740e2cf0641aa7f1a58d1d5c93a426e468152508160800151600781518110611f8757fe5b602002602001018190525060405180604001604052807f0bcbb0ea0679f90e15e34db9445e4ddedbd2564a39aede1afbd87843dd503a8e81526020017f15a88a343a949929abbd3d6735f39e09ee2ef7e5e70fc7804c3f372dc228fc9f8152508160800151600881518110611ff857fe5b602002602001018190525060405180604001604052807f0b3a8d9cd1ecfa9da1477a76b641bdde7ac1680d9b49688e22d47449dadaa31a81526020017f2c60fd1e5d81c5a73103ac6fc2bdf56c04312186dae82b43e5ab7417305a3b59815250816080015160098151811061206957fe5b602002602001018190525060405180604001604052807f30281bcd7ad025480f0fe726cc5b609f9c8dc18d1e429f93aa28ea9d76fe763e81526020017f2ab325afd92744099145e2cc0104e4ca6ba0cac3df9796d29242c143206181638152508160800151600a815181106120da57fe5b602002602001018190525060405180604001604052807f1aae6246d071b160453b482c1c4b5a5166c6f45387a3c06b96f2c8fdb495f08581526020017f193bcb76dad62c4d0174f06022a15fde2c18f03b5b05d9bf243505e2d716c8a58152508160800151600b8151811061214b57fe5b602002602001018190525060405180604001604052807f18127d8aceab73f16c89d59320bbc375bea862543446892a119e3dc42c6bfc0e81526020017f23c79f3ee64a8c35a24130e510f4ae6b6c79c105c2e8f4f9bbeb1db040f79d128152508160800151600c815181106121bc57fe5b602002602001018190525060405180604001604052807f213c8989201ad3e17fefa4d62524e4601af462aca3d27069ce932502531a3e2481526020017f184c202e1eeb4f748076806d0e79bf8c1292bf0aae0eed2d1dbb2ff51c75ce378152508160800151600d8151811061222d57fe5b602002602001018190525060405180604001604052807f2d2260f02f42855e8a3aac16ce9c098f61d7fec0e9204d1160d9455a0c721e8881526020017f25bfdb1c1bd7944298ed0b3a2ca1fab32c7d9087eb244cfd5b5ddd3bff005d648152508160800151600e8151811061229e57fe5b602002602001018190525060405180604001604052807f0b4e53fd955ecace0ee7bbca74e8dba7a975fbadff5b832e29d96245c812d58181526020017f0cba02f52c46ecbb257602757d42c84e631cc272c7934180c0d8fbcaaa732b668152508160800151600f8151811061230f57fe5b602002602001018190525090565b612325612b14565b61232d612b2e565b83600001518160006003811061233f57fe5b60200201818152505083602001518160016003811061235a57fe5b602002018181525050828160026003811061237157fe5b602002018181525050600060608360808460076107d05a03fa9050806000811461239a5761239c565bfe5b5080612410576040517f08c379a00000000000000000000000000000000000000000000000000000000081526004018080602001828103825260128152602001807f70616972696e672d6d756c2d6661696c6564000000000000000000000000000081525060200191505060405180910390fd5b505092915050565b612420612b14565b612428612b50565b83600001518160006004811061243a57fe5b60200201818152505083602001518160016004811061245557fe5b60200201818152505082600001518160026004811061247057fe5b60200201818152505082602001518160036004811061248b57fe5b602002018181525050600060608360c08460066107d05a03fa905080600081146124b4576124b6565bfe5b508061252a576040517f08c379a00000000000000000000000000000000000000000000000000000000081526004018080602001828103825260128152602001807f70616972696e672d6164642d6661696c6564000000000000000000000000000081525060200191505060405180910390fd5b505092915050565b61253a612b14565b60007f30644e72e131a029b85045b68181585d97816a916871ca8d3c208c16d87cfd47905060008360000151148015612577575060008360200151145b1561259b5760405180604001604052806000815260200160008152509150506125c7565b604051806040016040528084600001518152602001828560200151816125bd57fe5b0683038152509150505b919050565b60006060600467ffffffffffffffff811180156125e857600080fd5b5060405190808252806020026020018201604052801561262257816020015b61260f612b14565b8152602001906001900390816126075790505b5090506060600467ffffffffffffffff8111801561263f57600080fd5b5060405190808252806020026020018201604052801561267957816020015b612666612b72565b81526020019060019003908161265e5790505b5090508a8260008151811061268a57fe5b602002602001018190525088826001815181106126a357fe5b602002602001018190525086826002815181106126bc57fe5b602002602001018190525084826003815181106126d557fe5b602002602001018190525089816000815181106126ee57fe5b6020026020010181905250878160018151811061270757fe5b6020026020010181905250858160028151811061272057fe5b6020026020010181905250838160038151811061273957fe5b602002602001018190525061274e828261275e565b9250505098975050505050505050565b600081518351146127d7576040517f08c379a00000000000000000000000000000000000000000000000000000000081526004018080602001828103825260168152602001807f70616972696e672d6c656e677468732d6661696c65640000000000000000000081525060200191505060405180910390fd5b600083519050600060068202905060608167ffffffffffffffff811180156127fe57600080fd5b5060405190808252806020026020018201604052801561282d5781602001602082028036833780820191505090505b50905060008090505b838110156129d35786818151811061284a57fe5b60200260200101516000015182600060068402018151811061286857fe5b60200260200101818152505086818151811061288057fe5b60200260200101516020015182600160068402018151811061289e57fe5b6020026020010181815250508581815181106128b657fe5b6020026020010151600001516000600281106128ce57fe5b60200201518260026006840201815181106128e557fe5b6020026020010181815250508581815181106128fd57fe5b60200260200101516000015160016002811061291557fe5b602002015182600360068402018151811061292c57fe5b60200260200101818152505085818151811061294457fe5b60200260200101516020015160006002811061295c57fe5b602002015182600460068402018151811061297357fe5b60200260200101818152505085818151811061298b57fe5b6020026020010151602001516001600281106129a357fe5b60200201518260056006840201815181106129ba57fe5b6020026020010181815250508080600101915050612836565b506129dc612b98565b6000602082602086026020860160086107d05a03fa90508060008114612a0157612a03565bfe5b5080612a77576040517f08c379a00000000000000000000000000000000000000000000000000000000081526004018080602001828103825260158152602001807f70616972696e672d6f70636f64652d6661696c6564000000000000000000000081525060200191505060405180910390fd5b600082600060018110612a8657fe5b602002015114159550505050505092915050565b6040518060600160405280612aad612b14565b8152602001612aba612b72565b8152602001612ac7612b14565b81525090565b6040518060a00160405280612ae0612b14565b8152602001612aed612b72565b8152602001612afa612b72565b8152602001612b07612b72565b8152602001606081525090565b604051806040016040528060008152602001600081525090565b6040518060600160405280600390602082028036833780820191505090505090565b6040518060800160405280600490602082028036833780820191505090505090565b6040518060400160405280612b85612bba565b8152602001612b92612bba565b81525090565b6040518060200160405280600190602082028036833780820191505090505090565b604051806040016040528060029060208202803683378082019150509050509056fe45524332303a207472616e7366657220746f20746865207a65726f206164647265737345524332303a20617070726f766520746f20746865207a65726f206164647265737345524332303a207472616e7366657220616d6f756e7420657863656564732062616c616e636545524332303a207472616e7366657220616d6f756e74206578636565647320616c6c6f77616e636545524332303a207472616e736665722066726f6d20746865207a65726f206164647265737345524332303a20617070726f76652066726f6d20746865207a65726f206164647265737345524332303a2064656372656173656420616c6c6f77616e63652062656c6f77207a65726fa2646970667358221220892c31724598ba2086702b75c3097442be6b03dcc6f5648f25995269a9966dd664736f6c634300060b0033",
  "devdoc": {
    "kind": "dev",
    "methods": {
      "allowance(address,address)": {
        "details": "See {IERC20-allowance}."
      },
      "approve(address,uint256)": {
        "details": "See {IERC20-approve}. Requirements: - `spender` cannot be the zero address."
      },
      "balanceOf(address)": {
        "details": "See {IERC20-balanceOf}."
      },
      "decimals()": {
        "details": "Returns the number of decimals used to get its user representation. For example, if `decimals` equals `2`, a balance of `505` tokens should be displayed to a user as `5,05` (`505 / 10 ** 2`). Tokens usually opt for a value of 18, imitating the relationship between Ether and Wei. This is the value {ERC20} uses, unless {_setupDecimals} is called. NOTE: This information is only used for _display_ purposes: it in no way affects any of the arithmetic of the contract, including {IERC20-balanceOf} and {IERC20-transfer}."
      },
      "decreaseAllowance(address,uint256)": {
        "details": "Atomically decreases the allowance granted to `spender` by the caller. This is an alternative to {approve} that can be used as a mitigation for problems described in {IERC20-approve}. Emits an {Approval} event indicating the updated allowance. Requirements: - `spender` cannot be the zero address. - `spender` must have allowance for the caller of at least `subtractedValue`."
      },
      "increaseAllowance(address,uint256)": {
        "details": "Atomically increases the allowance granted to `spender` by the caller. This is an alternative to {approve} that can be used as a mitigation for problems described in {IERC20-approve}. Emits an {Approval} event indicating the updated allowance. Requirements: - `spender` cannot be the zero address."
      },
      "name()": {
        "details": "Returns the name of the token."
      },
      "symbol()": {
        "details": "Returns the symbol of the token, usually a shorter version of the name."
      },
      "totalSupply()": {
        "details": "See {IERC20-totalSupply}."
      },
      "transfer(address,uint256)": {
        "details": "See {IERC20-transfer}. Requirements: - `recipient` cannot be the zero address. - the caller must have a balance of at least `amount`."
      },
      "transferFrom(address,address,uint256)": {
        "details": "See {IERC20-transferFrom}. Emits an {Approval} event indicating the updated allowance. This is not required by the EIP. See the note at the beginning of {ERC20}. Requirements: - `sender` and `recipient` cannot be the zero address. - `sender` must have a balance of at least `amount`. - the caller must have allowance for ``sender``'s tokens of at least `amount`."
      },
      "verifyProof(uint256[2],uint256[2][2],uint256[2],uint256[15])": {
        "returns": {
          "r": " bool true if proof is valid"
        }
      }
    },
    "version": 1
  },
  "userdoc": {
    "kind": "user",
    "methods": {},
    "version": 1
  },
  "storageLayout": {
    "storage": [
      {
        "astId": 371,
        "contract": "contracts/Sumplete.sol:Sumplete",
        "label": "_balances",
        "offset": 0,
        "slot": "0",
        "type": "t_mapping(t_address,t_uint256)"
      },
      {
        "astId": 377,
        "contract": "contracts/Sumplete.sol:Sumplete",
        "label": "_allowances",
        "offset": 0,
        "slot": "1",
        "type": "t_mapping(t_address,t_mapping(t_address,t_uint256))"
      },
      {
        "astId": 379,
        "contract": "contracts/Sumplete.sol:Sumplete",
        "label": "_totalSupply",
        "offset": 0,
        "slot": "2",
        "type": "t_uint256"
      },
      {
        "astId": 381,
        "contract": "contracts/Sumplete.sol:Sumplete",
        "label": "_name",
        "offset": 0,
        "slot": "3",
        "type": "t_string_storage"
      },
      {
        "astId": 383,
        "contract": "contracts/Sumplete.sol:Sumplete",
        "label": "_symbol",
        "offset": 0,
        "slot": "4",
        "type": "t_string_storage"
      },
      {
        "astId": 385,
        "contract": "contracts/Sumplete.sol:Sumplete",
        "label": "_decimals",
        "offset": 0,
        "slot": "5",
        "type": "t_uint8"
      }
    ],
    "types": {
      "t_address": {
        "encoding": "inplace",
        "label": "address",
        "numberOfBytes": "20"
      },
      "t_mapping(t_address,t_mapping(t_address,t_uint256))": {
        "encoding": "mapping",
        "key": "t_address",
        "label": "mapping(address => mapping(address => uint256))",
        "numberOfBytes": "32",
        "value": "t_mapping(t_address,t_uint256)"
      },
      "t_mapping(t_address,t_uint256)": {
        "encoding": "mapping",
        "key": "t_address",
        "label": "mapping(address => uint256)",
        "numberOfBytes": "32",
        "value": "t_uint256"
      },
      "t_string_storage": {
        "encoding": "bytes",
        "label": "string",
        "numberOfBytes": "32"
      },
      "t_uint256": {
        "encoding": "inplace",
        "label": "uint256",
        "numberOfBytes": "32"
      },
      "t_uint8": {
        "encoding": "inplace",
        "label": "uint8",
        "numberOfBytes": "1"
      }
    }
  }
}